:020000040000fa
:080000000001040000000000f3
:020000040000fa
:04000800c803000029
:020000040000fa
:04000c00da03000013
:020000040000fa
:04001000ea030000ff
:020000040000fa
:04001400d003000015
:020000040000fa
:04001800e2030000ff
:020000040000fa
:04001c00ea030000f3
:020000040000fa
:04002000ea030000ef
:020000040000fa
:04002400ea030000eb
:020000040000fa
:04002800860200004c
:020000040000fa
:04002c00ea030000e3
:020000040000fa
:04003000ea030000df
:020000040000fa
:04003400680300005d
:020000040000fa
:04003800ea030000d7
:020000040000fa
:04003c00ea030000d3
:020000040000fa
:04004000ea030000cf
:020000040000fa
:040044007a0300003b
:020000040000fa
:040048008c03000025
:020000040000fa
:04004c00ea030000c3
:020000040000fa
:04005000ea030000bf
:020000040000fa
:040054001c0200008a
:020000040000fa
:04005800ea030000b7
:020000040000fa
:04005c00ea030000b3
:020000040000fa
:04006000ea030000af
:020000040000fa
:04006400ea030000ab
:020000040000fa
:04006800ea030000a7
:020000040000fa
:04006c00ea030000a3
:020000040000fa
:04007000ea0300009f
:020000040000fa
:04007400ea0300009b
:020000040000fa
:04007800b4020000ce
:020000040000fa
:04007c00ea03000093
:020000040000fa
:04008000ea0300008f
:020000040000fa
:04008400ea0300008b
:020000040000fa
:04008800ea03000087
:020000040000fa
:04008c00ea03000083
:020000040000fa
:04009000ea0300007f
:020000040000fa
:040094009e030000c7
:020000040000fa
:04009800b0030000b1
:020000040000fa
:04009c00c802000096
:020000040000fa
:0400a00060020000fa
:020000040000fa
:0400a400ea0300006b
:020000040000fa
:0400a800ea03000067
:020000040000fa
:0400ac00ea03000063
:020000040000fa
:0400b000ea0300005f
:020000040000fa
:0400b400ea0300005b
:020000040000fa
:0400b800ea03000057
:020000040000fa
:0400bc00ea03000053
:020000040000fa
:0400c000ea0300004f
:020000040000fa
:0400c400ea0300004b
:020000040000fa
:0400c800ea03000047
:020000040000fa
:0400cc00ea03000043
:020000040000fa
:0400d000ea0300003f
:020000040000fa
:0400d400ea0300003b
:020000040000fa
:0400d800ea03000037
:020000040000fa
:0400dc00ea03000033
:020000040000fa
:0400e000ea0300002f
:020000040000fa
:0400e400ea0300002b
:020000040000fa
:0400e800ea03000027
:020000040000fa
:0400ec00ea03000023
:020000040000fa
:0400f000ea0300001f
:020000040000fa
:0400f400ea0300001b
:020000040000fa
:0400f800ea03000017
:020000040000fa
:0400fc00f40200000a
:020000040000fa
:0401000020030000d8
:020000040000fa
:04010400ea0300000a
:020000040000fa
:04010800ea03000006
:020000040000fa
:04010c00ea03000002
:020000040000fa
:04011000ea030000fe
:020000040000fa
:04011400ea030000fa
:020000040000fa
:04011800ea030000f6
:020000040000fa
:04011c00ea030000f2
:020000040000fa
:040120004803000090
:020000040000fa
:04012400ea030000ea
:020000040000fa
:04012800ea030000e6
:020000040000fa
:04012c004a02000083
:020000040000fa
:040130006802000061
:020000040000fa
:04013400ea030000da
:020000040000fa
:04013800ea030000d6
:020000040000fa
:04013c00ea030000d2
:020000040000fa
:04014000ea030000ce
:020000040000fa
:04014400ea030000ca
:020000040000fa
:04014800ea030000c6
:020000040000fa
:04014c00ea030000c2
:020000040000fa
:04015000ea030000be
:020000040000fa
:04015400ea030000ba
:020000040000fa
:04015800ea030000b6
:020000040000fa
:04015c00ea030000b2
:020000040000fa
:04016000ea030000ae
:020000040000fa
:04016400ea030000aa
:020000040000fa
:04016800ea030000a6
:020000040000fa
:04016c00ea030000a2
:020000040000fa
:040170007e0200000b
:020000040000fa
:04017400ea0300009a
:020000040000fa
:04017800ea03000096
:020000040000fa
:04017c00ea03000092
:020000040000fa
:04018000ea0300008e
:020000040000fa
:04018400ea0300008a
:020000040000fa
:04018800ea03000086
:020000040000fa
:04018c00ea03000082
:020000040000fa
:04019000ea0300007e
:020000040000fa
:04019400ea0300007a
:020000040000fa
:04019800ea03000076
:020000040000fa
:04019c00ea03000072
:020000040000fa
:0401a000ea0300006e
:020000040000fa
:0401a400ea0300006a
:020000040000fa
:0401a800ea03000066
:020000040000fa
:0401ac00ea03000062
:020000040000fa
:0401b000ea0300005e
:020000040000fa
:0401b400ea0300005a
:020000040000fa
:0401b800ea03000056
:020000040000fa
:0401bc00ea03000052
:020000040000fa
:0401c000ea0300004e
:020000040000fa
:0401c400ea0300004a
:020000040000fa
:0401c800ea03000046
:020000040000fa
:0401cc00ea03000042
:020000040000fa
:0401d000ea0300003e
:020000040000fa
:0401d400ea0300003a
:020000040000fa
:0401d800ea03000036
:020000040000fa
:0401dc00ea03000032
:020000040000fa
:0401e000ea0300002e
:020000040000fa
:0401e400ea0300002a
:020000040000fa
:0401e800ea03000026
:020000040000fa
:0401ec00ea03000022
:020000040000fa
:0401f000ea0300001e
:020000040000fa
:0401f400ea0300001a
:020000040000fa
:0401f800ea03000016
:020000040000fa
:0401fc00ea03000012
:020000040000fa
:10020000efa122000e7f24000e01880000000000f4
:10021000000020000000e000020032000001200089
:1002200020028800140007008e0107000000e00093
:1002300003003a00e0372c000100200002003700e4
:100240000000200001002000810f7000010032003a
:1002500014000700000020000000e000020032004f
:10026000000002000000000084b502000000000051
:100270000040da000000fe004440a90040f12200e6
:100280000000e00003003200002020009001880000
:100290004440a800000006008a1f78008b1f7800e9
:1002a00000000600a1028800800478000000eb0036
:1002b0001f003700e284440054a0b4009905ba003e
:1002c000e284440054a0b4009906ba00e2844400d9
:1002d00054a0b4000006eb00476fde00fd07b2003b
:1002e000ae018800636ce10003003a00eaff0700fa
:1002f0000000eb000e003700606ce10008003a00df
:10030000004deb000a05e800020039003420ec0043
:100310000af0a0008b05e900f9ff3e000400370059
:100320006168e100010032000086eb000b0007006d
:1003300019c7ba001905ba000e04e00003003a001c
:100340000a00e000dbff3a0000000600fe07b200f2
:10035000ae0288008a047800f5ff37000cd0a300b5
:10036000e20f4d001c00390089027800354dba00bb
:100370000a05e800020039003420ec000af0a00071
:100380008b05e9000f003200254dba000a05e80090
:10039000020039003420ec000af0a0008b05e900cf
:1003a000080032000c00e0000600320015cdba0053
:1003b0000a05e800020039003420ec000af0a00031
:1003c0008b05e9008984e80054a0b4000b00e0002c
:1003d000e2ff3a00000006009902ba00055d7800cd
:1003e0008b05e900f7ff3200c82ade00055d7800c2
:1003f0008b05e900f3ff32000c00e000f1ff320052
:1004000019ddba00eeff3700048804000000000088
:100410004e88040000000000e48704000000000093
:10042000e813040000000000201504000000000094
:100430000000040000000000809fbe00821f7800c2
:100440000000fa0070478000f11c80000141780034
:1004500001e32100827078007047800001e32100f1
:1004600061407800ea4f500002003a0010c0b3002b
:10047000f0e8b700704780000000e800704788008f
:100480008960a9000080fa004f0178004f00be008b
:1004900000400600801f78000000fa00d01c800099
:1004a000620060000000e000010032009a23a90011
:1004b0009020a9000080fa004f007800004006005c
:1004c0000000fa008bc0a9000080fa00004006007e
:1004d000801f78000000fa00801d8000620060002c
:1004e0000000e00001003200b023a9009040a90004
:1004f0000080fa004f007800004006000000fa007b
:100500009240a9000080fa0000400600801f780099
:100510000000fa006ec8bf00e14f50000300320037
:100520006ec8bf00e34f50000b003a0064c8bf0024
:100530000004a2000004e0000700320010c0b30075
:1005400064e8b7006ac8bf000040e8006ae8b70086
:1005500020c0b3006de8b7008800a9000080fa0051
:100560004f00780000400600801f78000000fa006d
:1005700010c0b30067e8b7008a80a90020c0b300ac
:100580006de8b7000080fa004f00780000400600d8
:10059000801f78000000fa006ec8bf00e14f5000d5
:1005a000030032006ec8bf00e34f50000a003a005b
:1005b00010c0b30065e8b70068c8bf00e44f500042
:1005c00003003e0068c8bf000040e80068e8b700cc
:1005d00020c0b3006de8b7008ba0a9000080fa002e
:1005e0004f00780000400600801f78000000fa00ed
:1005f0006ec8bf00e14f5000030032006ec8bf005c
:10060000e34f50000a003a0010c0b30066e8b7009c
:1006100069c8bf00e44f500003003e0069c8bf0036
:100620000040e80069e8b70020c0b3006de8b700fb
:100630008ea0a9000080fa004f007800004006005c
:10064000809fbe000000fa00a1338000000220005d
:10065000008060000000e00007003a0010c0b30016
:10066000f1e8b7008280a90077c6a90010c0b300e6
:100670006de8b70002003700f168ef008280a80043
:100680008ec0a9000080fa004f00be0000400600a6
:10069000809fbe000000fa00c10e80000002200012
:1006a000008060000000e0000300320010c0b300d2
:1006b0006ce8b700d8a1a9008fc0a90020c0b30082
:1006c0006de8b7000080fa004f00be000040060051
:1006d000801f78000000fa00c04680000000e8009b
:1006e000c04688008860a9000080fa004f007800aa
:1006f00000400600801f78000000fa00d04680000d
:100700000000e800d046880088e0a9000080fa00d8
:100710004f00780000400600801f78000000fa00bb
:10072000e04680000000e800e04688008900a9005b
:100730000080fa004f00780000400600801f78001b
:100740000000fa00f04680000000e800f046880053
:100750008b60a9000080fa004f007800004006007e
:10076000809fbe000000fa00004780001147800013
:1007700061004000e0804800004788001147880081
:100780008b80a9000080fa004f00be0000400600e8
:100790003600f8008020a9000000eb00386a07004e
:1007a0003600f8003b6a07008040a90010002000d6
:1007b000336a07003600f8008060a900200020009e
:1007c0002f6a07003600f8008080a9003000200062
:1007d0002b6a07000040da000000fe00889fbe0080
:1007e00080047800e05081000000e00004003a003e
:1007f0000f0007000084eb000000e0000800350057
:10080000e85081000900e0000500320009004400c2
:10081000070007000000e00001003d000084eb003d
:10082000080078004f04be0000000600000005002c
:10083000800078000100e00003003a000000200082
:10084000e0508900000005000080eb00020020005d
:10085000828f500002003e00e15089000000eb0052
:10086000000006000000050003f0a200889fbe0003
:100870008a9fbe008c1f78002a01070031013300d7
:100880006450e1004f0032006420e1005200320069
:1008900003826c0007003b000905d0000306d0006e
:1008a000820f54000c065d00020039000200320085
:1008b00089017800030678008582550004003d0018
:1008c0000003fd008103fd008502ea008b854200e4
:1008d000840f720002003b0060001000e0801800ee
:1008e0006011b8000005eb007a28e1000a00390029
:1008f00006007800c75ddd00f707b200878075004d
:100900002d003700828171000a01780061056000c6
:100910008180d1000080d3008502e900f9ff3b000f
:10092000060440008784480002003b006004140075
:10093000e0841c000988a300070032008a8171004e
:1009400082817100610164008904d1000884d300b0
:100950008b05e800170037000978a30013003a0060
:100960000b00e000130034008b05e900080444008c
:1009700089844c000a4474000978a3000d003a00f1
:100980000b00e000070034008b05e9000804440078
:1009900089844c0001003a000b0020000978a30074
:1009a000f7ff32000001eb00020037008281710086
:1009b0000a017800a00007000cf0a70001f0a000d9
:1009c000e90037006420e10002003a00838f6c00e8
:1009d000e90033000801be000200be00e20037005b
:1009e000889fbe008a9fbe008c1f7800cd00070044
:1009f000d400330003866c006450e1002e00320006
:100a00006420e100330032006150e1002f00320029
:100a10006120e1003100320085855500eb07b00010
:100a200009002000080420000500370008044400e5
:100a300089844c000a0031000603430087834b0081
:100a40000001530081815b00f8ff33000203be0008
:100a50000800a0000804440089844c00f6ff390017
:100a6000c639dd008301730001003200130020004d
:100a70008904d1000884d3000998a300050032003e
:100a80000800a7000300a0008904d1000884d30057
:100a90008b05e8008904d1000884d3000001eb0035
:100aa0000281d2006400070001f0a1000cf0a70051
:100ab00001f0a000ac0037006420e100ae0032007d
:100ac0000801be000200be00f7ff37006120e10010
:100ad000a90032006000b800f3ff370000002000da
:100ae00001f82700f0ff3700839f68000100e00055
:100af00002003d0060001000e08018000300e000ec
:100b000002003d0060011100e08119003001070082
:100b10004f00e00002003b0060001000e080180081
:100b2000000006001400200064023700f4ff2f00cc
:100b3000620237000001be00650007000470a700d4
:100b400003f0a1006509b100160032000d00350068
:100b50006828e10006003500f0ff2f00f1ff2700b4
:100b60000300e00013003b00010028000000050026
:100b700000004000818048008502e900fcff3a0047
:100b800008003700f88f420002003c008000eb00b4
:100b9000000005008100d1000080d3008502e8003c
:100ba000fcff3a000300e00002003b006000100080
:100bb000e0801800000006000001be0044000700ad
:100bc0000470a70003f0a10003f8a30013003a008b
:100bd0006509b10010003200090035006928e10004
:100be0000200350001002800000005000000400060
:100bf000818048008502e900fcff3a000000060001
:100c0000f88f4200050035008100d1000080d3003c
:100c10008502e800fcff3a00000006008000eb00bf
:100c2000000005004f89de00820178003e02370097
:100c30006011b8004c02370081002000618055002f
:100c40000b003d000b00200061fe2f000100e100c1
:100c50001d00340082817100610164008904d100ab
:100c60000884d3000000e800faff3a007100200079
:100c7000610064000300700002006000090032009f
:100c800061044400e0844c000988a500050032009e
:100c90008b05e8006808e10002003a008904d100f1
:100ca0000884d300f20f20000258e10005003d0047
:100cb000c75ddd00f907b200898075000800780083
:100cc000000006000bf827008b00780000000500ec
:100cd000c70ade00f107b200f50fb20008003200cb
:100ce000e1cf4200020032000170a00024000500a4
:100cf000810f700001003200040805004400050067
:100d0000810f700002003a00140005008502e9001e
:100d10000000400081c04800fcff3b000170a000c3
:100d2000240005000004be00e9ff07000003be0028
:100d30000405be000200be00e5ff0700844f7500f9
:100d4000000006000200be006450e100050036000d
:100d50006420e100020036000968a30001003a00a7
:100d60000800be000160a0004f0678004f05be00dd
:100d70004f04be0000000600f0ff2f00f1ff270027
:100d8000f9ff3700889fbe008a9fbe008c1f780045
:100d9000e4ff0700ebff330003866c006450e100c2
:100da000240032006420e100270032006150e1009d
:100db000220032006120e100210032008b854200d8
:100dc000eb07b1000134b800003ab8000804420053
:100dd00089844a00013ab8000030b8008880400099
:100de00009014a00040033000000400081804800ef
:100df000020149008b05e900c909dd00830170008b
:100e00000100320013002000c814de004814dd0089
:100e10004709de001200b200c808de000884700036
:100e200085ff070001f0a1000cf0a70001f0a00071
:100e3000cdff37006120e100cfff32000801be0086
:100e40000200be00f7ff37006150e100fcff3a00ee
:100e5000c9ff37000001eb0043023700889fbe0046
:100e60008a9fbe000004be0099ff07000800be0074
:100e70006420e1000700390002003a00f1ff27007a
:100e8000f0ff2f000160a00012022000c24788007e
:100e90004c00370001f0a10002802000935c240088
:100ea00020ff07000800be0004003500b2fd20004e
:100eb00093042400db0107000004be0032982f00d9
:100ec00023f22300afff07000200200003f02300fd
:100ed00001f0a70003f0a00064fe070015ff070063
:100ee000801f78004fff070001f0a2000005be0040
:100ef0000200200093fc2300a2ff07000801be00af
:100f00005afe0700809fbe000a00be0022a22a00ef
:100f1000d39f23009bff07004f01be0053fe070035
:100f20000004be0001f0a10002002000039823008d
:100f3000fefe070003003d000000200001f8230032
:100f4000180037000800be000001be008dff07003a
:100f50000005be00823b230043dc2b0089ff070015
:100f60000801be0087ff07000801be003ffe070022
:100f70000004be000a00be0052372300f3c1230064
:100f800080ff0700f27a2b00b3ed2b0037fe07003d
:100f90000a01be007bff07000200200003f82300c7
:100fa00032fe07004f00a600030037000801be0014
:100fb00003f0a200020037000001be000800be00de
:100fc00087fe07004f05be004f04be00000006006c
:100fd0006022b800060220000000d0008180d2000c
:100fe0000482d2008582d2000000a00002025200da
:100ff00083825a00030031000202420083824a00c9
:101000000000a1000603e900f3ff3a00000006001b
:10101000889fbe008a9fbe0030044200b0844a0010
:1010200030054b0090854b006000b1000898be0071
:101030000a90be000440e10005c8e10006d0e100ce
:1010400007d8e10002003100680040001008e80005
:101050004f05be004f04be0000000600889fbe0082
:101060008a9fbe003004be002005be000418540054
:1010700005985c0006185d0007985d0011002000cf
:101080000440e10005c8e10006d0e10007d8e10016
:10109000010039008000eb00108810004f05be00f1
:1010a0004f04be00000006001200fa00889fbe0038
:1010b0008a9fbe008c9fbe00e0b79f00f1b79f00e3
:1010c00082bf9f0093bf9f000605be000404be00c0
:1010d0000000eb00d0b79f00c0b79f00b0b79f00e3
:1010e000a0b79f0090b79f000006eb005fb197008c
:1010f000cfb09700820141003fb097000200e000ae
:1011000004003d00370007007e805700c0ff070045
:1011100003003700330007007e805700cfff070031
:10112000dfb697000d00e0000c0035006fb29700ad
:10113000ffb297000fbb97009fbb970010002000e5
:10114000010020006011b80000027200818272006c
:1011500002037300838373001b0007000c06e80082
:1011600001042000810f5600e0ff3a000d00e0006e
:1011700004003d000802be000a03be007e80570046
:10118000a3ff07005fa897000000e00005003a00f9
:101190001fb29700afb297003fb39700cfb397004d
:1011a000090007006fb09700ffb097000fb99700d4
:1011b0009fb997004f06be004f05be004f04be000a
:1011c0000080fa0000000600010007000000060091
:1011d000a4b79f00b5b79f00c6b79f00d7b79f00c1
:1011e000000006004f09de0082817100b3b79f0046
:1011f0004f01de008180400082807000a1b79f0017
:101200008fb097004f09de00000040000200700020
:1012100090b79f007fa897004f01de0081804000bb
:101220008280700081b79f000d0007004f3ade00fa
:101230000000400004007000f0af9f0008000700ad
:101240000402420085824a0006034b0087834b005c
:10125000dfff07000802be000a03be000000060010
:101260002fb29700bfb297004fb39700dfb397003c
:1012700000000600881f780018002000881f7800f2
:1012800089ff07008f87e9004f04780000000600ff
:10129000801feb0084ff07008f87e9000000060035
:1012a000889fbe008a9fbe00e00f5000e08f58006c
:1012b000e00f5900e08f59000c003d006044b80079
:1012c0006055b8000000540081805c0002015d00a0
:1012d00083815d00180020001500070008003d0014
:1012e000180007000004eb00050037000004eb00c5
:1012f0000f00070002003d00120007001800200048
:10130000dcff07000800e000060032006022b800a1
:101310006033b8000000520081805a0002015b0077
:1013200083815b004f05be004f04be000000060035
:10133000e00f5200e08f5a00e00f5b00e08f5b008f
:10134000000006006044b8006055b8000402540074
:1013500085825c0006035d0087835d000000060057
:10136000889fbe008a9fbe008c1f7800e00f50004f
:10137000e08f5800e00f5900e08f59000d003d004c
:101380006044b8006055b8000000540081805c00e3
:1013900002015d0083815d001c0020000820e10047
:1013a00009a8e1000ab0e1000bb8e1000d003d0022
:1013b000080037000006eb00e00f5200e08f5a00f3
:1013c000e00f5b00e08f5b0006003d006044b8006a
:1013d0006055b8000402540085825c0006035d007d
:1013e00087835d00aaff07000c00e00006003200c2
:1013f0006022b8006033b8000000520081805a00bb
:1014000002015b0083815b004f0678004f05be0040
:101410004f04be0000000600889fbe008a9fbe00e9
:101420008c1f78000006eb00e00f5000e08f5800a2
:10143000e00f5900e08f590007003d006044b800fc
:101440006055b8000000540081805c0002015d001e
:1014500083815d001c002000e00f5200e08f5a00e5
:10146000e00f5b00e08f5b0007003d006044b800c8
:101470006055b8000402540085825c0006035d00dc
:1014800087835d000c00a200200107000c00e00033
:10149000060032006022b8006033b800000052003d
:1014a00081805a0002015b0083815b004f06780057
:1014b0004f05be004f04be0000000600889fbe001e
:1014c0008a9fbe00841f780016fe07004f00780038
:1014d00011003300f0ff2f00838f6c0006003b00eb
:1014e000040565000a00a7000800370009f0a600ff
:1014f0001000200008003700820f5400838f5c002a
:10150000030039001000200001003e000000200010
:1015100009f0a7000000ea004f05be004f04be001e
:101520000000e00000000600881f78000304780037
:101530000300e00007003d0060001000e08018009c
:1015400060011900e081190002003b0001f02d004c
:10155000030037000400070008f0a70001f0a00016
:101560004f04780000000600889fbe008a9fbe00de
:1015700000827000040271000482710026003200b3
:101580000004be000200be006011b8006b0920001c
:10159000950220000182cf000a0039000541b10008
:1015a0000082cf00070039000541b1000982cf0059
:1015b000040039000541b1000882cf000100390064
:1015c0000541b10005425200120032000a003b0002
:1015d00082817100610164008100d1000080d3002c
:1015e0008984d3000884d3008b05e8000442e80016
:1015f000f7ff3a00070037000804440089844c00d4
:1016000000004800818048008b05e9000442e900a1
:10161000f9ff3a0088fd07004f05be004f04be00e9
:10162000000006000400200000003700889fbe0074
:101630008a9fbe008c1f78004f26dd00b9fd070091
:10164000c0fd33006120e100430032006250e10040
:1016500041003e003e0039006420e1003c003200c1
:10166000058255000f003b000402e80038003a00f4
:10167000800f5300818f5b00350034000800be00ee
:1016800003f0a10001f0a60003f0a0000cf0a700f9
:1016900076fc0700b4fd37000603430087834b0048
:1016a0000c4646000005530081855b0002003300b4
:1016b0000a03be000c00a0000402e900f6ff3b0094
:1016c000850578000602430087824b0004003a003b
:1016d0006000b80009f0a70001f0a000a2fd3700eb
:1016e0000002520081825a000704e0000400330027
:1016f0000603430087834b008b05e900faff3700a0
:10170000090578000604be000203be006011b8009f
:1017100049fd0700e00f5200e08f5a000700350036
:1017200002003c000c08a300040032000601be00c9
:1017300003f0a0000cf0a7004cfc07000a8568002d
:1017400001f0a1000af0a70001f0a00086fd37001b
:101750000800be0084fd3700100220000cf0a60037
:10176000c047880084fd3700889fbe008a9fbe0066
:101770008c9fbe00820578000004be0054fd070067
:101780000800be006420e1000700390002003a00b2
:10179000f1ff2700f0ff2f000160a00012022000df
:1017a000c2478800550037006120e10003003a007d
:1017b0000b00a70001f823005000370001f0a10042
:1017c0000200210093642400d6fc07000800be003c
:1017d00004003500b2fd2000930c240091ff0700a7
:1017e0000004be000005eb000b00a6004f0dde005c
:1017f00001f0a1000004be0032982f0023ea23006c
:1018000060fd07000001eb0003f023000b00a700c0
:1018100003f8230015fc0700c6fc07000000a70022
:101820000a00a200fffc07000b00e00003003200ea
:101830000200200003f023000bfc070001f0a200cf
:101840000006be0002002000930424004dfd0700a6
:101850000801be0005fc0700809fbe000c00be0012
:1018600022a22a00d3a7230046fd07004f01be0095
:10187000fefb07000004be0001f0a10002002000f2
:1018800003982300a7fc07000800be0019003500dc
:101890000001be003bfd07000006be00b2c52900e6
:1018a000e362230037fd070022222b00f3942b0074
:1018b000eefb07000c01be0032fd0700e2732800ba
:1018c00083c02300e9fb07000c01be002dfd0700cb
:1018d00042aa2a00a3e22b00e4fb07000c01be0091
:1018e00028fd07000801be0026fd07000801be0014
:1018f000defb07000a00a70001f0a2004f06be00b1
:101900004f05be004f04be0000000600889fbe00c9
:101910008a9fbe008c9fbe000404b8000506b80074
:101920008904460060854e000606b8000a05460098
:10193000e0854e000706b8008b054600040eb8008f
:10194000890446000a854e00e0854d00050eb8006a
:101950000a0546008b854e00060eb8008b05460032
:101960000416b8000a0546008b854e000516b8001f
:101970008b054600041eb8008b0546000800be001b
:101980000a01be004f06be004f05be004f04be0058
:10199000000006000618280057c527000202430071
:1019a00083824b000000430081804b00800f520077
:1019b000818f5a0003003c000400500085805800cd
:1019c00098fc37000000520081805a0095fc070007
:1019d00001f0a2000000060080017800020037003c
:1019e000b15978000201e9000200e000fcff3a0072
:1019f000000006008001780002003700815978005d
:101a00000201e9000200e000fcff3a0000000600cd
:101a10001000fa00889fbe008a9fbe008c9fbe0007
:101a200000067800cc019000c200200011000900df
:101a30008201d8000001780044ff2f000492b90011
:101a40008481410002003b00ec8141000201e90079
:101a5000dc0690000200e00007003d0004002800c2
:101a6000020252000080eb008080eb00848f560061
:101a700009003d006d0037000200e0000600320062
:101a8000f4ff2700020252000080eb008080eb0090
:101a90008d0f5200650035008d06410083007800ef
:101aa0000d007800820107000000e9003c02900070
:101ab000cfa2de00612bb900cf80de00040440001d
:101ac000858448000685480087854800e8b79f0060
:101ad000f9b79f008abf9f009bbf9f002c0090001a
:101ae000cf80de006109b90004e12000050020007c
:101af0006033b80048fe07000205be000004be00c7
:101b00001c009000cf80de006109b900c4032000f2
:101b1000050020006033b8003ffe070000024400cb
:101b200081824c0002034d0083834d001c0078002d
:101b3000cf80de000404400085844800068548000c
:101b4000878548006168b9006109b900043823003d
:101b5000151e20006033b8002ffe0700000244006d
:101b600081824c0002034d0083834d00a4b79f0087
:101b7000b5b79f00c6b79f00d7b79f0004182500d0
:101b8000150020006033b8006fb09700ffb09700d9
:101b90000fb997009fb997001ffe07002fb297005b
:101ba000bfb297004fb39700dfb397000004420025
:101bb00081844a0002054b0083854b000800be006b
:101bc0000a01be0058fe07006011b800d5fb0700ef
:101bd000000178000080eb008080eb000200e00054
:101be000120035000018280051c5270008044000e5
:101bf000898448008c0890000801be000c00780021
:101c0000460107000c0890000000e00004003400ca
:101c1000001f2f00f1ff2f000804400089844800b6
:101c2000c50107000000540081805c004f06be0023
:101c30004f05be004f04be000080fa000000060001
:101c4000889fbe00603e81000000e000010032007d
:101c500000000100703e81000000e0000100320041
:101c600000000100a07c22001004e00022003a00e5
:101c7000705081008150810088002000d2602600d1
:101c8000930120005e0c0700f2352f00e3c623000d
:101c900000004100818049000804e900f7ff3a0094
:101ca000087d22000908200088844400d2602600b4
:101cb00093012000520c0700f2352f00e3c62300e9
:101cc000000041008180490000acbe00890f540033
:101cd000f6ff3a00705089008150890080428100ef
:101ce00091428100803e8900913e890011c0b3007d
:101cf000a07c220001487800d260260093012000d9
:101d000070508100815081003d0c0700f2352f009a
:101d1000e3c623000002410081824900745089001b
:101d200085508900007d2200100078007f0160004e
:101d30004211dd00407d2200020140001200be0081
:101d4000803e8900913e89000489be000100780030
:101d500000f0a1004f04be00000006000001780062
:101d6000820178003204e000fdff3a0003017800b0
:101d7000b1417800035978000304e000fcff3a0009
:101d80000000060000017800b14178000359780096
:101d90000304e000fcff3a00000006008000780029
:101da000010178003104e000fdff3a00000051001d
:101db000000006000c003700b0417800b1cf5100a0
:101dc00006003200100020009542780094cf5200a7
:101dd0000b0031000080eb00000006000304e0006f
:101de000060032000201e90001027800800278005a
:101df0000200e000f0ff3a00000005000000eb00e8
:101e00000000060080017800020037008459780045
:101e10000201e9000200e0000600320031427800d1
:101e20000404e000f9ff3a00020037008059eb009b
:101e30000201e9000200e000fcff3a000000060099
:101e4000ee874700889fbe008a9fbe008c9fbe0021
:101e50008e1f7800f0b79f00010678008205780099
:101e600000047800080578000a047800b846780075
:101e70000d00fb00210107000000e000f9ff3a001f
:101e8000d0c2b30080cf56000300320000c0e9008a
:101e900080cf560002003a000a05e8000100370032
:101ea000804678000b00e00005003500e18f55000a
:101eb0000300320040022000808f550006003400ed
:101ec0006044b8000c00e000720032007fb0970060
:101ed000000e7800480037000b00e0000e003200d2
:101ee000f08f55001a003a0000c3b3009a4f10005b
:101ef00017003a001a40900081c7b300814f50008c
:101f00000300320081c5b300814f500010003a0039
:101f10000a85e8000e003700ab00200000c3b300c4
:101f20009a4f10000a003a001a40900081c7b3008f
:101f3000814f5000040032008b00200081c5b300a7
:101f4000814f500002003a000a85e8000b01200092
:101f50000a007800000278000400780001c3b30092
:101f6000b0cf1000fbff3200040778006044b800d7
:101f7000b4b79f000d003700218b22008140500034
:101f8000c1ef9f006159b9000800be009c0b07001b
:101f90004fea97000401fb00cf91de00c8b79f0015
:101fa000d9b79f0002044000838448008e02780065
:101fb0003e00fb0085bf9f00d80007000b017800a2
:101fc00080007800208b2200370507008fba970029
:101fd0000000e000e8ff3a003fb29700850f55008f
:101fe00007003a006044b8000c00e000290032000d
:101ff000ffb29700050e78006044b8002500370056
:1020000004825200708d220060c07d000000fb0041
:10201000000252001700330011003a004fe9970008
:102020000200fb00cf80de000000540081805c00d5
:10203000800f5400818f5c00090039006159b9009c
:1020400085bf9f00e2fb07008fba97004fb1970052
:10205000dfb19700820f5000838f580005003200d7
:1020600020022000c04788000084eb008084eb0041
:1020700005003700d0c2b30080cf560002003a00fe
:1020800060041400e0841c000c00e0000100320039
:10209000050e78000800be004f0778004f06be000e
:1020a0004f05be004f04be00ef00b1000000060067
:1020b00080027800010378000500e000030034008e
:1020c0000501e9004291de00090037000001eb0044
:1020d000e38f420006003d00e48112004200200030
:1020e000110009008201d800000178000201e80017
:1020f00063826200c38f220004003a0043912200f1
:102100000500e00001003a00c38f22008600430072
:10211000818141001300410000000600ea8747006a
:10212000889fbe008a9fbe008c9fbe008e1f7800d5
:10213000000478000ae82700ab3a280002054500b1
:1021400083854d00dab79f00ebb79f000800e000e1
:1021500001003a00c89e2200010c980002182500d8
:10216000130020000a00be0099fb07000006be0015
:1021700061004000e0804800720020000300200061
:102180000d0b070060049800d21620000300200009
:102190000c00be0054fa07000001be000007eb006f
:1021a0008e0451008000eb0009007800f2b79f0018
:1021b00083bf9f00beff070000027800d0162000fa
:1021c00000c8b900cfa2de000000420081804a00b2
:1021d0000e07e8007fb197008fb99700800f560077
:1021e000818f5e00eeff35000006560081865e009e
:1021f000590498007c04980063806400c18f220019
:1022000004003a00419122000900e00001003a0078
:10221000c18f2200f6804000c00020000000e900cd
:102220000101780021027800cfa2de00840f560061
:10223000858f5e00f9ff3500400498000c06e80029
:10224000120656003c0498000218250013002000d6
:102250000a00be00e70a07000005be0002e12000f8
:10226000030020005afb07002004980002e1200030
:10227000030020000a00be00de0a07000005be00c1
:10228000c20320000300200051fb07001004980047
:10229000c2032000030020000a00be00d50a070088
:1022a000000c7800080890000000e00005003d00e8
:1022b0000800780047010700000c98000000e000cb
:1022c00007003c00080078004f0778004f06be006a
:1022d0004f05be004f04be00af00b1000000060075
:1022e0000ae120000b0020005fb09700efb09700dc
:1022f0000005450081854d0098ff37006900e10029
:10230000040035006d00e100030034000002b1005c
:102310000100320000000500100005008000780078
:102320001104b100030035009101b10001003c002f
:102330000050a000000006000400fa00889fbe00c4
:10234000b04d81000000e0000100320000000100fb
:1023500040348100f14f8100808f50003100320005
:102360001004e00002003a00010107004034890037
:10237000668157002100200040348100ff040700df
:1023800000047800a2002000e880570008007800d0
:102390003600070000508900115089004fb997009e
:1023a000080451005fb99700820f540009003a00f9
:1023b000d2ae2f00f3ff2f00820f5000838f580002
:1023c0000400350032512000820f5000e08f580089
:1023d000030034006000b8000050890011508900eb
:1023e0000850810019508100c2f92f00f3ff2f001f
:1023f0000800be00bcf90700820220000300200094
:102400007f0a07000004440081844c00600414002b
:10241000e0841c0008508900195089004134810073
:10242000f14f890042fc2f00f3ff2f000050810084
:1024300011508100720a07004f04be000080fa00ac
:1024400000000600889fbe001004be00baff07000f
:102450000001440081814c008080eb000000eb0013
:102460002eff07004f04be0000000600e68747006d
:10247000889fbe008a9fbe008c9fbe008e1f780082
:1024800080047800010778000e00e00001003a00a7
:10249000728757008005eb00614ab8006158b800a8
:1024a0000006420081864a000c05780064447800ea
:1024b0000800fb0082bf9f0090ff07008b05e8002b
:1024c0000fb997000000e000f3ff3a00d0c2b3005c
:1024d000804f54000300320000c0e900804f5400d8
:1024e00002003a000c05e8000100370000447800c3
:1024f0008e0078000a00780051fe07009e0f5500fc
:1025000001003a00090f78009e8f540003003a0042
:10251000e00f5000e08f58000f003a00b2c2b30045
:10252000824f540004003a00e00f5000e08f580042
:1025300015003d0008003700d2c2b300824f54009e
:1025400011003a000200200003002800820f500012
:10255000838f58000a00360020022000c047880000
:10256000f0ff2f00f1ff2700d2c2b300824f5400ca
:1025700005003a000000200001002800020037009a
:1025800060001000e08018004f0778004f06be0082
:102590004f05be004f04be006f00b10000000600f2
:1025a000e8874700889fbe008a9fbe008c9fbe00c0
:1025b0008e1f7800800078000005eb0019002000d5
:1025c0006109b800020478006a4779000e00fb0038
:1025d000e1b79f00f2b79f0083bf9f000b03070086
:1025e000efb097007fb197008fb997000000e0002f
:1025f00046003200614ab900669a22006136b8008e
:102600000e727e00640343006a447c0008727b0003
:102610000401410085814900020478008904e80032
:102620000a05e800e48f5400e5ff3a001240780004
:10263000d1c2b300814f50000300320081c0e900d5
:10264000814f500002003a000204e8000100370008
:1026500001407800f19a2200804878009840780084
:102660000101fb000203b1000000eb00e90f510083
:1026700027003e00009b2200014878008804780073
:10268000d94078000101fb000203b1000000eb001b
:10269000e90f51001e003e00109b22000148780007
:1026a0005900fb00d90207000000e00012003200d0
:1026b0005a0020006151b90082057800630054007f
:1026c000624778000e00fb00f2b79f0083bf9f00b7
:1026d000ce0207007fb197000000e0000b0032003f
:1026e0008e757e008884e900828444000a05e80033
:1026f000e80f5500efff3a000000eb001904e0007e
:1027000003003a00609a2200010037000000eb004d
:102710004f0778004f06be004f05be004f04be00b5
:102720008f00b10000000600809922003ff80700ea
:10273000a05089000000e00007003a00109a220033
:102740003af80700a05089000000e00002003200c3
:1027500093ff0700a0508900a05081000000e00016
:1027600002003a00409a2200a050890000000600b2
:10277000881f780028a122001804e00003003a0016
:10278000e9ff070020c0b300004c7800a050810092
:102790004f04780000000600803e210058033700f7
:1027a000881f780088a022001804e00003003a0087
:1027b000f9ff070020c0b300004c78001000200093
:1027c0004f0478000000060030508100a702370057
:1027d000fdff3700f6874700889fbe008a9fbe0036
:1027e0008c9fbe008e1f780000047800ecff07006d
:1027f000b04d81000000e000010032000000010047
:102800003034810021508100808f50001c00320044
:102810001004e0000f003a00403481001004e00092
:1028200002003a00d2ff070040348900e2fd2f0089
:102830000f0141003100200040348100cf03070028
:10284000303489001004e000020032006168220088
:102850008008e900303481004203070080047800da
:102860000085eb000900e0006e003200305081006e
:102870007e020700395089003034810020508900e1
:102880008000eb005800900009fe070080047800eb
:10289000780090007800b900280190000001410004
:1028a00082b79f00d8009000d01620000088b900a1
:1028b00061004000e08048004fc9de000080440015
:1028c0008100490072002000030020003a0907003f
:1028d000ee024000345081008006eb000005eb0062
:1028e00009017800880178004700370064844500ba
:1028f0008004eb0053009000ec407c008180fb00e2
:10290000808f50003f003c00e3804500ecc0780021
:102910008180fb00b2b79f00e3b79f00d4b79f0050
:10292000c5b79f0096b79f00a7b79f00e0fd0700bf
:102930008b80e800ecc078008180fb003fb19700fd
:102940008280500080804000f1b79f006c467f007d
:102950008cf79f00efb197005fb29700cfb297005e
:102960001fb397000c04e000130032000c87fb003b
:102970000e875200010747007c002000110009006b
:102980000c07d800010778000006eb000e00e000fd
:1029900001003200670617007fb097000c0040006e
:1029a000f0b79f008ff09700e7cf500002003e0085
:1029b00067005000f0b79f007fb697007860b900bd
:1029c0008b03e800e6c37b008783fb0000804300a5
:1029d0008fb09700808f500012003500e6407c00d9
:1029e000e985450066c07d0080cf500002003a00b6
:1029f0000a00e000020032000005eb000100370091
:102a00001a0020008d06e800656bb8008405780088
:102a1000060678000407780066407a00e14f40001f
:102a2000b2ff3a000a0078004f0778004f06be0058
:102a30004f05be004f04be006f01b100000006004c
:102a4000881f78000204780008017800e2fb070084
:102a5000080040004f047800000006000000fa0063
:102a6000881f780000047800ea8157003fb997007a
:102a70008800780000522100070007000000e000f5
:102a8000020035008040eb00017478004f047800ac
:102a90000080fa00000006006200fa00889fbe0075
:102aa0008a1f78000005780081047800020478000d
:102ab0008300780080f92f000f004000a305070075
:102ac0009a979f00a9979f000000eb00b09f9f007e
:102ad0001885fb008a04fb000a05ea004f55de005a
:102ae00050022000808f54000d003200e10f55008d
:102af0000b003a000a017800880078002f909700b8
:102b00009f91970003000100a0979f000000e00044
:102b10008e0032003f9897000000e800b09f9f00b1
:102b20000a04440050022000808f54000400320048
:102b30000900e000e6ff3a003f9897008400370064
:102b40000000eb00909f9f00809f9f00f0979f00e8
:102b5000e0979f00d0979f00c0979f000700370025
:102b6000619e22000100500000004000a19d220053
:102b700061007800df98970001007000d09f9f00ef
:102b80008804780009047800384578008a00fb0042
:102b9000609e22004e0207000000e000f0ff3a00b5
:102ba000a1c2b300814f55000e003a00cf889700b4
:102bb0000180e900c08f9f0010007800c09f9f0037
:102bc0000000e00005003d000000ea00c09f9f00fb
:102bd0005f9897000020a000d09f9f000904e800a4
:102be0000f003700c09f9f000000eb00050037007a
:102bf000f2ff2700820f5000020032006a01b90084
:102c0000028040000904780088047800b900fb00c5
:102c10000103b100e98f5000f5ff3600c09f9f000f
:102c2000e0c2b300984f1000020032000080eb00b9
:102c300019003700a0c2b300d84f100007003a00b7
:102c4000cf8897000180e900c08f9f0010007800b6
:102c5000a09f9f000804e800100037000000eb0070
:102c6000a09f9f008800780005003700f3ff270031
:102c7000830f5000020032006a02b90004004100d4
:102c800001047800880078003101fb000203b100e4
:102c9000e90f5100f5ff3600a09f9f00984478008f
:102ca0008900fb00209d2200090207000000e000cf
:102cb000020032000804e800010037008044eb0005
:102cc000c97f9f0080c6b30080cf540004003a0043
:102cd00098cf14000a003a00664050000600370002
:102ce000c0c6b30080cf540005003a0098cf14004e
:102cf00003003a0065404000c07f9f000804e800e0
:102d00001801fb00e3fb2f008f81410081f92f00a8
:102d10008f804000a0f92f000f0040001000070036
:102d20000000e00009003a00e1fb2f008f80400026
:102d3000a0f92f000f004000df0307000000e000b3
:102d4000020035000804e80061ff37000080eb0056
:102d50004f0578004f04be000080fa000000060016
:102d6000889fbe008a1f780000047800e0c6b30088
:102d7000804f5100c100320015003c006b405000f4
:102d8000804f5100240032000a003c007040500087
:102d9000804f5100fa00320065404000804f5100e2
:102da0006800320050c2b300804f51000b013a005e
:102db0000701370040c6b300804f51001b003200ae
:102dc00065404000804f510004013a001700370071
:102dd00030c7b300804f5100e900320007003c00cb
:102de00064405000804f5100560032000040e8001f
:102df000804f5100f9003a00d300370050c7b300ac
:102e0000804f51004f00320063404000804f51001e
:102e1000f2003a004b0037001181e9008208780087
:102e20007800900012417800ea0037002860900096
:102e3000c4c6b300844f500007003a001102780066
:102e400064005200800878001002be004fabde0024
:102e5000860378001100370014c7b300844f500078
:102e600003003200a4c6b300844f500006003a00ad
:102e70001102780068005200800878003002be001d
:102e80002003be00050037001180e90080087800ab
:102e900010027800cfa2de00612bb900049cbe00b6
:102ea0000694be002860900081c6b300814f500098
:102eb0000d00320021c6b300814f500004003a00db
:102ec0000402fb00cfa2de00612bb900080037002e
:102ed00041c7b300814f500003003200e6c04000fc
:102ee000814f500004003a00cfa2de00612bb900f0
:102ef000049cbe000694be003802be002803be003b
:102f000078009000d1c2b300e00f5200e08f5a0069
:102f1000e00f5b00e08f5b00080035008810900038
:102f20000118a30002003200b1c2b3000300370051
:102f30000108a3004c00320001c2b3008171780087
:102f40004700370028609000c4c6b300844f50008b
:102f500006003a00110278006400520080087800f0
:102f60001002be006033b8001100370014c7b30070
:102f7000844f500003003200a4c6b300844f5000b9
:102f800006003a00110278006800520080087800bc
:102f90003002be002003be00050037001180e900aa
:102fa00080087800100278008002eb006033b800df
:102fb000049cbe000694be002860900081c6b30049
:102fc000814f50000d00320021c6b300814f5000e8
:102fd00004003a000482fb008002eb006033b8007a
:102fe0000800370041c7b300814f50000300320092
:102ff000e6c04000814f500004003a008002eb0020
:103000006033b800049cbe000694be000810900017
:103010000038a300140032003802be002803be00ae
:10302000e00f5200e08f5a00e00f5b00e08f5b0082
:103030000d00320080c7b300804f51000300320002
:1030400080c5b300804f510007003a00780090001f
:1030500001c3b300817178000000e800827178003c
:103060000000e80070049800780090008081410022
:1030700063049800824078003e0037002861900089
:10308000c3c6b3001180e900834f51002200320013
:103090000a003c00e4c15100834f5100250032007a
:1030a00083c1e800834f510013003200e8c1510092
:1030b000834f51001e003a000a00370043c7b30097
:1030c000834f51001b003200e6c14100834f510085
:1030d00018003200e9c15100834f510014003a003a
:1030e000050037008008780010007800485c9000e8
:1030f0000848780041003700800878001000780008
:10310000680a9000cfa2de00612bb9000498be00cf
:103110000690be0039003700800878001000780063
:1031200068099000cf91de000288be0033003700ae
:103130001180e9008008780010007800680c900089
:10314000080878002d0037001180e9008008780019
:1031500010027800cfa2de00612bb900049cbe00f3
:103160000694be00780090008081410063049800be
:1031700081c7b30008007800a00107001f003700d6
:103180001180e90080087800100578006a04980032
:10319000d80c90000900e00004003d000a0078000f
:1031a000fefa070080047800070037000901780064
:1031b0008000eb000a007800bb0007000000e00080
:1031c000010032008a045000190c98000b003700ef
:1031d0007800900082717800060037007800900037
:1031e000808141000204e00001003a0052c2b300b5
:1031f000824978000000e800700498000000eb00ad
:103200004f0578004f04be00000006001004b10016
:10321000070035009001b100040034007000b100d7
:10322000030035009001b10001003c0010000500d2
:1032300000000500b04d81000000e00001003200f8
:1032400000000100006622000000060080017800f6
:10325000a4682200c2652200a1012000809b2200f8
:1032600051030700809b2200000006000000e000e0
:103270002f003200c0017800e38f51002c0036008f
:103280000308a3002a003a00c15081000100e000b9
:1032900002003200810f500004003100110098003c
:1032a000c05089001600370082007800110190009c
:1032b0000200e00002003200800f5100faff3900e6
:1032c0001102780084824000850f500018003900f8
:1032d000808f520003003a0083084200010078000a
:1032e000070037000200e0000300320083014000c5
:1032f000830f51000e0039001200980090009800d2
:10330000900090000100e000090032001001400030
:10331000828f500006003a0062a122000009eb00f3
:1033200010017800110841009100900011009800f0
:1033300000000600889fbe0000047800b1508100a4
:103340000100e00002003200010078000d003700ab
:10335000c150810080a1220004003700910f540069
:10336000250036000180e800910090000100e00097
:10337000faff3a0010003700920f54001e0036008a
:103380000280e800100178000200e000faff3a0035
:1033900011017800c150810080a122000400370093
:1033a000910f5400140036000180e8009100900055
:1033b000828f5000faff3a00d9508100888f540064
:1033c000010031008804780009007800e10007005e
:1033d0000000e00004003a00888f5400050032002d
:1033e0008904d100f5ff3700091878009fff070016
:1033f000d2ff37000000eb004f04be0000000600c3
:10340000881f7800630440000800a1008000eb00e2
:10341000800f540021003600e30f540001003e00ed
:103420004800200008007800c2ff07008000eb0081
:103430000000e0001900320090007800910178004f
:1034400064815100880f5100030031001101900088
:103450000208780007003700088140000208780061
:1034600091019000130198001001780011091400d7
:1034700088087800100178000000eb000200e000ee
:1034800004003200920190000300e00001003200cd
:103490000280e800b05089008180e80001007800d7
:1034a0004f0478000000060003003700b0cf100082
:1034b000050032000201e900800178000200e0000e
:1034c000faff3a0000000500030078000000060043
:1034d000020037000304e00006003200000178001b
:1034e00002007800b041780081cf5100f9ff3a0026
:1034f000010037000001eb00020078000000060028
:10350000010020000100e0000800320001008000fe
:103510000100e000050032008100e90001008800a0
:10352000818040000200800000b1780000000600a9
:10353000000178000000eb00020037006a02b900c9
:10354000048041008100e90005003300b201fb0066
:103550000303b100e98f5100f8ff36000080eb0053
:1035600000000600e4874700889fbe008a9fbe00d7
:103570008c9fbe008e1f7800904678000006eb00fe
:103580000d04e0006c0032008004e80009007800bf
:1035900028002000020037000000e8000804e800ce
:1035a0008d00fb00caff07000000e000faff3a00b0
:1035b0006540b90092ff0700000578000a06780010
:1035c0000a00e0005c0032000a0478008005eb008d
:1035d00080c2b300994f10000b003a000900e800c8
:1035e00041002000d2ff070041892f0081054000e3
:1035f0004e003300d940900090c2b30080cf5000fd
:103600004a003a00e68444008bf79f004b44980040
:103610002100200009007800c5ff07000040e900f4
:1036200090f79f00304498008984e8002100200032
:1036300009007800beff07000047e9002e4498000b
:103640008984e8001900fb000003b100e90f500075
:1036500006003e002100200009007800b4ff0700aa
:10366000104498008984e800020037000040eb0015
:10367000104498001ff09700eb4f50002b003e00c5
:1036800030c6b300804f570028003e00984090009d
:1036900080cf500025003e0019407800b1c2b30031
:1036a000814f50000500320081c0e800814f50007a
:1036b00002003200004ceb000f00370099409000f0
:1036c00000cdb30000c04000e64f500017003e00a0
:1036d00002c3b30082cf500001003a0070c0b300b3
:1036e000004c7800b1c2b30099cf100001003a003d
:1036f000674c40008984e800194078000004e0002d
:1037000005003a006504440000cceb000ff0970080
:1037100040449800080037008d4f500003003a00e5
:10372000650444008904e800a9ff37000a00780016
:10373000cefe07000006eb000c0078004f07780073
:103740004f06be004f05be004f04be004f00b10043
:1037500000000600800078000000eb000100e0009f
:1037600005003400010078001cf40700e10f400060
:1037700001003a000000eb0000000600889fbe0038
:103780008a9fbe000004be000205780098457800bc
:103790000b04e000010032000804e8008b00fb008d
:1037a000080078004aff07000000e00003003a002c
:1037b0000800780079f90700000044000900e000e3
:1037c00002003c00080d5000080037001004e00023
:1037d00003003a00000deb000004780003003700fe
:1037e0008904e9000004e800ecff370008007800d5
:1037f0004f05be004f04be0000000600fc874700d6
:10380000889fbe008a9fbe008c9fbe008e1f7800de
:103810000006780080c5b30080cf50000a00320057
:103820007740400080cf50000a00320069404000dd
:1038300080cf50000b0032007096220080bf9f00a6
:10384000ae0020000a0037006295220082bf9f0070
:10385000060037007396220083bf9f008e00200071
:10386000030037007496220084bf9f000e012000e1
:103870003c02be002c03be000605be000404be00d0
:1038800040c6b30080cf50000300320065404000c6
:1038900080cf50000b003a00e00f5200e08f5a003a
:1038a000e00f5b00e08f5b0006003d006000b800a9
:1038b0006011b800040450008584580006055900c2
:1038c00087855900e80f57000400320040002000af
:1038d000f00f570038003a00010037003000200098
:1038e000e00f5400e08f5c00e00f5d00e08f5d00b2
:1038f00004003a00dc0890008d0120000100e00087
:10390000060032008e00e900888060008fba9700c0
:10391000e5c07800f1ef9f007d0120008000780075
:103920008100e900050033008b05d1000a85d30032
:103930008984d3000884d300f9ff3700089ebe00b5
:103940000a96be00120037008d06e9008e00e900dd
:10395000848060000fb99700e2c1780082fd2f00db
:103960000f01410003f17e00800078008100e90032
:10397000050033008783d1000683d3008582d300fe
:103980000482d300f9ff3700049ebe000696be00f5
:103990003c02be002c03be00e00f5200e08f5a0034
:1039a000e00f5b00e08f5b008b0034000d00e00057
:1039b000e5ff3c00880037002c60900081c6b30012
:1039c000814f50000b00320006003c000004e00074
:1039d00008003200e6c05000814f50004e003a000f
:1039e00004003700c1c6b300814f50004a003a00be
:1039f000210037000800e00004003a005c08900055
:103a00008d0120000000e0000600320011000900d6
:103a10000e84d8000fb99700e2c07800f1ef9f0044
:103a20007d012000110009000e84d8000a00370033
:103a3000110009000e04d8008d06e9000e81b900be
:103a4000020454008fb8970061417c0081fd2f0073
:103a50008f80400082f07e00000478000800e000c3
:103a6000020032000d00e000f1ff3c00cfc4de0098
:103a7000614db90025003700e00f5400e08f5c0075
:103a800004003a005c0890008d0120000000e00076
:103a9000070032006171b9000800be00d5040700bc
:103aa0008fb99700e3417800f3ef9f007d0120007c
:103ab0006171b9000800be0045f507000b00370032
:103ac0006171b9000800be0007f407008d06e90027
:103ad00000f1b900020454000fba9700e4427c00e0
:103ae00084fd2f000f02420005f27e000004be009c
:103af000e00f5000e08f5800020032000d00e0009f
:103b0000efff3c004fcdde008a057800089ebe0026
:103b10000a96be0030003700e00f5400e08f5c00d2
:103b2000e00f5d00e08f5d0004003a005c0890004b
:103b30008d0120000000e000090032006172b90030
:103b4000612bb9000800be000a01be00d0f50700d5
:103b50000fba970064427800f4ef9f007d012000c7
:103b60006172b900612bb9000800be000a01be00f5
:103b7000c0f507000d0037006172b900612bb90074
:103b80000800be000a01be00c5f507008d06e90069
:103b900000f2b900040454008fba970065427c001b
:103ba00085fd2f008f82420084f27e00009ebe00c1
:103bb0000296be003c04be002c05be00e00f54007f
:103bc000e08f5c00e00f5d00e08f5d0002003400dc
:103bd0000d00e000e8ff3c00e80f570010003a003d
:103be0000c1090000038a3000d003200f78f560033
:103bf00006003e0085fd2f008f824200e5c07e005a
:103c000000c3b30080cf5000050032008d06e900ec
:103c100002c3b30081fd2f008f80400082f07e0040
:103c200078811600120e98006c00900083fd2f0022
:103c30008f8141008d80410067f707001c089000cc
:103c4000dc089000810f500006003d00008050000d
:103c5000000e98000c1090000040a1000016980083
:103c60000f0037000100e0000d003d008c109000b7
:103c7000f4806000f08f500009003a007c09900049
:103c8000fc009000810051000c09900082805000df
:103c9000008050004240a90001003400000e98004e
:103ca0004f0778004f06be004f05be004f04be0010
:103cb000cf01b100000006000400fa00889fbe009a
:103cc0008a9fbe008c1f78000004780001067800ef
:103cd000f80d90007800900080855500080890004d
:103ce00080855500180890008085550028089000b0
:103cf0008085550038089000808555004808900060
:103d0000808555000002220090bf9f000003230021
:103d1000a0bf9f00081090000028a30015003a00e3
:103d20000b00e000130034000b0578008a047800d3
:103d3000e20f55000100360029002000c801900064
:103d400009017800ee805700580090000300010040
:103d5000500498000000e0008c00320068089000d9
:103d600009004000600c9800090555004240a90078
:103d7000eeff3c00780190000200e0000c003400ef
:103d8000c80190008c0078005800900003000100ea
:103d9000500498008080eb000000e0007c003200be
:103da000e80890007800900000804000600c9800c7
:103db000880c90000900e00011003400090578002b
:103dc000e28f5400010036002a002000c801900054
:103dd0000a017800ec8057005800900003000100b1
:103de000500498000000e00068003200680890006d
:103df0000a004000600c98008a845400edff3700f0
:103e0000180990000200e0000c003400c801900086
:103e1000e800900058009000030001005004980052
:103e20008080eb000000e00059003200e8089000bc
:103e30001808900000804000600c9800a80c9000ca
:103e40000900e0001100340009057800e28f5400f9
:103e5000010036002a002000c80190000a01780005
:103e6000ec805700580090000300010050049800b7
:103e70000000e00045003200680890000a004000a1
:103e8000600c98008a845400edff370038099000d8
:103e90000200e0000e003400e800900018089000d6
:103ea00080804000c801900058009000030001008d
:103eb000500498008080eb000000e00034003200e5
:103ec000e80890003808900000804000600c9800de
:103ed000c80c90000900e0001100340009057800ca
:103ee000e28f5400010036002a002000c801900033
:103ef0000a017800ec805700580090000300010090
:103f0000500498000000e000200032006808900093
:103f10000a004000600c98008a845400edff3700ce
:103f2000081090008000eb000028a3001800320069
:103f30000b00e000160034008b04780009057800bf
:103f4000e28f5400010036002a002000c8019000d2
:103f50000a017800ee80570058009000030001002d
:103f6000500498000000e00008003200680890004b
:103f70000a004000600c98008a8454004240a90066
:103f8000eeff3c008000eb00010037008080eb007a
:103f9000010078004f0678004f05be004f04be00b8
:103fa0000080fa00000006008f02b000889fbe006b
:103fb0008a9fbe008c9fbe008e1f7800000778008d
:103fc000010678000204780083bf9f00f4b79f00c9
:103fd0000800780071f70700800478008e057800eb
:103fe0000005eb00480037000a05e9000a0045001b
:103ff000c1fc2f008f804000008040001004900022
:10400000c0049000184078008086fb008d06ea000e
:10401000cf6ede000d0444008d84540051c2b30005
:10402000814f500002003a000900e00005003a000c
:104030008d0f56003e0039008d0054000d017800b0
:104040001f0037009846780050c4b30080cf560058
:10405000030032006a40400080cf560002003a0060
:104060000804e800010037008046eb00a5fd2f00a2
:104070008f824200c4fc2f000f024200984178005a
:104080000d417800ffb097000fb89700400107007e
:104090000d04e000010032008904e9000804e80092
:1040a0008904e900efa697000d00e0000900340044
:1040b0008d0f56001e0039000d0178008000780039
:1040c0000b00780044f607008d8545000d0656006c
:1040d0000d0037000900e00009003200e20f550032
:1040e00007003e008a004500c2fc2f000f0141007e
:1040f0008100410098009800c90098000a05e80076
:104100008d04ea00000478000900e000bdff3a00d9
:104110000a00e000b4ff3a000000eb000c00e000f1
:1041200004003200804deb000e8055000100370086
:104130000000eb004f0778004f06be004f05be00a1
:104140004f04be008f02b100000006000108780095
:104150000000060080805000e780400067024100b8
:1041600073002000110009008300d80001005200f4
:10417000110009000300d800000006000200fa0048
:10418000889fbe008a9fbe00800478008105780069
:10419000a2002000ea8057000b007800b3f8070067
:1041a0003fbd9700280020008a8f55003300320061
:1041b0009a457800f2c2b30082cf55002f003a0032
:1041c000d9019000c276200002814100cf91de002b
:1041d000820f5000838f580023003a000a05e80040
:1041e000a2002000ea8057000a0078009ff807002c
:1041f0000001be00bfb89700810f55001f003200bc
:1042000091cf15001d003a00490290000402e80019
:10421000cfa2de00840f5100858f590005003200c7
:1042200018002000820f5200838f5a0013003d00b7
:10423000110037000100e800a2002000ea805700ca
:104240008af807003fb99700820f55000b00320033
:1042500039019000cf91de000004eb00820f500086
:10426000838f58000500320018002000800f510095
:10427000818f590001003d000084eb0008007800a8
:104280004f05be004f04be000080fa00000006008b
:1042900000000500889fbe008a1f78008004780017
:1042a00001047800080178008900780010002000df
:1042b000a8ff070000057800f5ff0700000278005e
:1042c000840154003917b0000884540072002000a3
:1042d000110009000204d80001047800d116200062
:1042e0008880400084804000110009008200d800ce
:1042f000b0162000808f510003003400e28f500080
:1043000003003a000f003700808f510003003a008d
:10431000e38f500004003a000a003700a016200086
:10432000808f510002003a00e48f500005003200f7
:104330000884e900e20f540003003e000a05e8008b
:10434000010037000085eb000a0078004f05780077
:104350004f04be0000000600881f780000047800ab
:104360000100780082007800caff07000000e0002a
:1043700002003a000804e900030037000000e000f2
:1043800001003c000804e800080078004f047800b1
:1043900000000600889fbe008004780001047800b9
:1043a0008800780009007800baff07000000e000ec
:1043b00009003a00b6ff0700d11620000000e00017
:1043c000010032008100e800e784440008805400c6
:1043d000b0ff0700030037000000e00001003c00d0
:1043e000100020004f04be0000000600889fbe00a1
:1043f0008a9fbe00800478000204780003057800dc
:10440000810578000b00e00001003d008005eb0015
:10441000f0c4b300804f520006003a000a01780051
:104420008b00780015007800d4fc07001a00e0002b
:1044300012003c00080d780088844400804ceb009a
:104440000001eb0008003700a30020001100090064
:104450008305d80006c3b30086c140000203ea000a
:1044600003737a0080057800614ab80002005200a8
:104470000201e80082005400f3ff3b004f05be003c
:104480004f04be00000006000200fa00889fbe0034
:104490008a9fbe008c1f7800000578000106780016
:1044a0008004eb002c0037008805e8006c81570081
:1044b000110020000b007800b0fc0700800078009d
:1044c0000a0078002dff070098407800d2c2b300a0
:1044d00082cf500002003a000000e80003003700dd
:1044e000b2c2b30082cf50001a003a00e10f500070
:1044f00018003e006c815700210020000b0078005e
:104500009efc07009040780098cf500004003a00cd
:1045100010419000a1c2b300814f5100160032003b
:10452000800078000a00780014ff070098407800a7
:10453000d2c2b30082cf500004003200b2c2b30036
:1045400082cf500003003a000000e800e10f500065
:10455000090036008904e8006c8157008900780062
:104560001c00780085fc0700000478001804e000b7
:10457000cdff3a00c8922200080078004f0678006c
:104580004f05be004f04be000080fa000000060088
:10459000ec874700889fbe008a9fbe008c9fbe00ac
:1045a0008e1f78000005780081047800824578002d
:1045b00004047800050678000300fb00cf80de00cd
:1045c0005002b1000180b10052052000820f50005e
:1045d000e08f5800eb013e0000600100e50137006c
:1045e000e8013700e7013700e6013700e501370051
:1045f000e4013700e3013700e2013700e101370051
:10460000e0013700df013700de013700dd01370050
:10461000dc013700db013700da013700d901370050
:10462000d8013700d7013700d6013700d501370050
:10463000d4013700d3013700d2013700d101370050
:10464000d0013700cf013700ce0137003e003700e0
:1046500045003700530037006d003700c9013700af
:104660007e0037008c003700960037009c00370032
:10467000c4013700c3013700c2013700ae00370064
:10468000c0013700bf013700be013700bd01370050
:10469000c5003700c8003700d2003700df00370000
:1046a000e2003700f2003700ff0037005d013700fd
:1046b000a4013700b3013700b2013700b101370060
:1046c000b0013700af013700ae01370019003700e5
:1046d000770037002a0037004600370050003700c7
:1046e000a80137006100370071003700a5013700cd
:1046f00081003700a3013700a20137008600370090
:10470000940037009f013700960037009d01370065
:104710009c0037009b013700ae003700b500370022
:1047200098013700cb003700d6003700e90037008a
:1047300060013700ea0090008180400008017800a5
:104740002900900005003700ea00900081804000b9
:104750008100e800080178003900900007fc07009c
:10476000800678008d013700ca00900081804000eb
:104770008100e8000801780069009000f7ff370029
:1047800050c4b30080cf550002003a005908900091
:104790000100370009089000080178008000eb0054
:1047a000c900370050c4b30080cf55000b003a0059
:1047b00021022000898040000a00780032ff0700b3
:1047c0000000e8000801780031002000ebfb070042
:1047d000800678001d04e00070013a00da009000c5
:1047e00042062000110009008200d800f3004000ba
:1047f0004b00370045022000898242000b427800be
:104800008801780022002000ba0090001e013700c5
:1048100080ff2f00000c7800fd9222005f0137001e
:1048200045022000898242000b427800880178000e
:1048300022002000ba0090000c007800ebfe070078
:104840008006780000c3b3009c4f100053013a006b
:1048500070405000004e78005001370080ff2f005c
:10486000000c78008d9322004c0137007a019000f3
:10487000ea0090005a009000b7fe070042062000b0
:10488000110009000200d8000100e00024003d00f2
:1048900082804000220037007a019000ea009000f8
:1048a0005a009000acfe0700c1762000f0003700ef
:1048b000ca009000818040000801780059009000f3
:1048c000a6ff370045022000898242000b42780093
:1048d0008801780022002000aa009000ea0037003a
:1048e000aa009000eb804000c200200011000900e7
:1048f0008200d80009003700fa0090008100e8002b
:1049000045022000898242000b427800880178002d
:1049100032002000dc003700ca0090008100e8006f
:1049200045022000898242000b427800880178000d
:1049300022002000d4003700450220008982420076
:104940000b42780088017800220020009a00900035
:10495000cd00370010002000000c78001d942200cc
:104960000e013700110020002a009000eb0f5000cc
:1049700001003c008000eb0008017800190078007d
:1049800076ff370050c4b30080cf550002003a00d4
:1049900009109000010037003908900008017800e4
:1049a0003100200048003700b0ff2f00000c7800d5
:1049b0003d942200f9003700450220008982420020
:1049c0000b42780088017800220020009a007800cd
:1049d000ad00370010002000000c78009d942200ec
:1049e000ee00370080ff2f00000c7800bd942200fd
:1049f000ea003700ea0090000100e00001003a0000
:104a00007100200045022000898242000b4278009c
:104a100088017800120020009b0037007a01900086
:104a2000ea0090000000eb0014003700fa0090004c
:104a30006a00900057fe070045022000898242006c
:104a40000b42780088017800220020008000780066
:104a50008d00370045022000898242000b42780019
:104a60008801780012002000ea00900086003700dc
:104a70007a019000ea00900010002000b5fd0700c8
:104a8000edff370050c4b30080cf550002003a005c
:104a900069089000010037001908900008017800ab
:104aa000110020000800370050c4b30080cf55002b
:104ab00002003a00790890000100370029089000b0
:104ac00008017800210020002cfb070080067800f8
:104ad000760037005a0790004206200011000900b6
:104ae0000207d800010778000e00e00001003d0039
:104af000020747002d00200050c4b30080cf5500ae
:104b000041003a0021022000898040000a0078001c
:104b10005dfe0700000278008d0142001304e000f2
:104b2000390032005a039000c07620000003430091
:104b3000cfb3de000405e800080178001100200072
:104b40000a007800e3b79f00d4b79f00f6b79f0034
:104b500087bf9f0009fb0700a20020008000eb0038
:104b600042f607007fb397008fbb97000003530006
:104b700081835b00d0c2b3005fb29700efb19700b2
:104b8000944f100002003a0060031300e0831b0002
:104b9000a2002000f880570003007800e3b79f00d0
:104ba000f6b79f0087bf9f0030f607000002be00e7
:104bb000cfb097002d002000efb197007fb3970092
:104bc0008fbb9700818f51000f0032009140780019
:104bd0009acf50000c003a000400430085804b003f
:104be000000778001d002000010037008d06e80056
:104bf000a200200003002000bbef0700e00f5000e0
:104c0000e08f5800f9ff3c004502200089824200f5
:104c10000b427800880178000d0178008e00780042
:104c20001900370050c4b30080cf55000e003a0081
:104c300021022000898040000a00780012fe07004f
:104c40000000e8000801780041002000cbfa0700ce
:104c500080067800b0c3b3009d4f10000200320000
:104c60001800e0000b003a00da009000c076200047
:104c70008080400045022000898242000b4278007b
:104c800088017800420020000c007800d7fd070062
:104c9000b3fe3700b10320000d0078000cfa0700c6
:104ca0000000e000010032000d0c5000180cea007a
:104cb0003a003700491090001004e00001003a006b
:104cc000abf607000801780021002000abfa0700ce
:104cd000800678001800e000300034000a089000d8
:104ce0000000e0002d003400a20020008000eb0056
:104cf0000d007800ddf507004106200080804000af
:104d000003003300b0c2b300004e78000300370048
:104d1000d0c2b300004e78008100ea000c00e80029
:104d200045022000898242000b4278008801780009
:104d300042002000adfd07008006e900180ce800e5
:104d4000160037001b0020000a0890000000e00059
:104d500001003c008005eb00491090001004e000c9
:104d600001003a0082f60700080178008b00780005
:104d70007afe370010002000000c78004d952200cc
:104d800006003700034e78000040eb001046980004
:104d900020002000000c78008c0678000d007800c0
:104da0004f0778004f06be004f05be004f04be00ff
:104db000cf00b10000000600811f78000100e00074
:104dc00002003d0060001000e08018000300e000d9
:104dd00002003d0060011100e0811900050007009c
:104de0004f00e00002003b0060001000e08018006f
:104df0000000060076f007000400be000000060078
:104e0000020ab900001bb9000200b800810042008c
:084e10008100430000000600d0
:020000040000fa
:104e1800000000000000000000000000000000008a
:104e2800000000000000000000000000000000007a
:104e3800000000000000000000000000000000006a
:104e4800000000000000000000000000000000005a
:104e5800000000000000000000000000000000004a
:104e6800000000000000000000000000000000003a
:104e7800000000000000000000000000000000002a
:104e8800000000000000000000000000000000001a
:104e9800000000000000000000000000000000000a
:104ea80000000000000000000000000000000000fa
:104eb80000000000000000000000000000000000ea
:104ec80000000000000000000000000000000000da
:104ed80000000000000000000000000000000000ca
:104ee80000000000000000000000000000000000ba
:104ef80000000000000000000000000000000000aa
:104f08000000000000000000000000000000000099
:104f18000000000000000000000000000000000089
:104f28000000000000000000000000000000000079
:104f38000000000000000000000000000000000069
:104f480000000000000300008000000000000000d6
:104f58000000000000000000000000000000000049
:104f68000000000000000000000000000000000039
:104f78000007000001ff00008000000000000000a2
:104f88000000000000000000000000000000000019
:104f98000000000000000000000000000007000002
:104fa80001ff000080000000000000000000000079
:104fb80000000000000000000000000000000000e9
:104fc80000000000000000000007000001c700000a
:104fd8008000000000000000000000000000000049
:104fe80000000000000000000000000000000000b9
:104ff800000000000007000001830000800000009e
:105008000000000000000000000000000000000098
:105018000000000000000000000000000000000088
:10502800000700000183000080000000000000006d
:105038000000000000000000000000000000000068
:105048000000000000000000000000000007000051
:105058000383000080000000000000000000000042
:105068000000000000000000000000000000000038
:10507800000000000000000000070000838300001b
:105088008000000000000000000000000000000098
:105098000000000000000000000000000000000008
:1050a8000000000000030000cf8300008000000023
:1050b80000000000000000000000000000000000e8
:1050c80000000000000000000000000000000000d8
:1050d80000030000ff8300008000000000000000c3
:1050e80000000000000000000000000000000000b8
:1050f80000000000000000000000000000010000a7
:10510800ff03000080000000000000000000000015
:105118000000000000000000000000000000000087
:10512800000000000000000000000000fe00000079
:105138000000000000000000000000000000000067
:105148000000000000000000000000000000000057
:105158000000000000000000000000000000000047
:105168000000000000000000000000000000000037
:105178000000000000000000000000000000000027
:105188000000000000000000000000000000000017
:105198000000000000000000000000000000000007
:1051a80000000000000000000000000000000000f7
:1051b80000000000000000000000000000000000e7
:1051c80000000000000000000000000000000000d7
:1051d8000000000000000000000000001fe00000c8
:1051e80000000000000000000000000000000000b7
:1051f80000000000000000000000000000000000a7
:105208000000000000000000fffc0000000000009b
:105218000000000000000000000000000000000086
:105228000000000000000000000000000000000076
:1052380000030000ffff0000000000000000000065
:105248000000000000000000000000000000000056
:105258000000000000000000000000000003000043
:10526800ffff000000000000000000000000000038
:105278000000000000000000000000000000000026
:105288000000000000000000000700008007000088
:105298008000000000000000000000000000000086
:1052a80000000000000000000000000000000000f6
:1052b800000000000007000000030000800000005c
:1052c80000000000000000000000000000000000d6
:1052d80000000000000000000000000000000000c6
:1052e800000700000001000080000000000000002e
:1052f80000000000000000000000000000000000a6
:10530800000000000000000000000000000700008e
:105318000001000080000000000000000000000004
:105328000000000000000000000000000000000075
:10533800000000000000000000070000000300005b
:10534800807c000000000000000000000000000059
:105358000000000000000000000000000000000045
:10536800000000000007000080070000807c0000ab
:1053780000600000000000000000000000000000c5
:105388000000000000000000000000000000000015
:1053980000030000f87f0000807c00000078000017
:1053a80000000000000000000000000000000000f5
:1053b80000000000000000000000000000030000e2
:1053c800ffff0000007c000000f800000000000063
:1053d80000000000000000000000000000000000c5
:1053e800000000000000000000000000fffe0000b8
:1053f800007c000000f80000000000000000000031
:105408000000000000000000000000000000000094
:1054180000000000000000003ff80000007c0000d1
:1054280000f8000000e0000000000000000000009c
:105438000000000000000000000000000000000064
:105448000000000000000000007c000000f80000e0
:1054580000f0000000000000000000000000000054
:105468000000000000000000000000000000000034
:1054780000000000007c000000f8000001f00000bf
:105488000000000000000000000000000000000014
:105498000000000000000000000000000000000004
:1054a800007c000000f0000001f000000000000097
:1054b80000000000000000000000000000000000e4
:1054c800000000000000000000000000007c000058
:1054d80000f0000001e000000000000000000000f3
:1054e80000000000000000000000000000000000b4
:1054f8000000000000000000007c000001f0000037
:1055080003e00000030000000000000000000000ad
:105518000000000000000000000000000000000083
:1055280000000000007c000001f0000003e0000023
:1055380003c00000000000000000000000000000a0
:105548000000000000000000000000000000000053
:10555800007c000001f0000003c0000007e000002c
:105568000000000000000000000000000000000033
:10557800000000000000000000000000007c0000a7
:1055880001f0000007c0000007c000000000000094
:105598000000000000000000000000000000000003
:1055a8000000000000000000007c000001e0000096
:1055b80007c0000007c00000000000000000000055
:1055c80000000000000000000000000000000000d3
:1055d80000000000007c000001e0000007800000df
:1055e8000f80000000000000000000000000000024
:1055f80000000000000000000000000000000000a3
:10560800007c000003e000000f8000001f80000005
:105618000000000000000000000000000000000082
:10562800000000000000000000000000007c0000f6
:1056380003e000000f8000001f00000000000000d1
:105648000000000000000000000000000000000052
